{
  "contractName": "Voting",
  "abi": [
    {
      "anonymous": false,
      "inputs": [
        {
          "indexed": true,
          "internalType": "address",
          "name": "previousOwner",
          "type": "address"
        },
        {
          "indexed": true,
          "internalType": "address",
          "name": "newOwner",
          "type": "address"
        }
      ],
      "name": "OwnershipTransferred",
      "type": "event"
    },
    {
      "anonymous": false,
      "inputs": [
        {
          "indexed": false,
          "internalType": "uint256",
          "name": "proposalId",
          "type": "uint256"
        }
      ],
      "name": "ProposalRegistered",
      "type": "event"
    },
    {
      "anonymous": false,
      "inputs": [
        {
          "indexed": false,
          "internalType": "address",
          "name": "voter",
          "type": "address"
        },
        {
          "indexed": false,
          "internalType": "uint256",
          "name": "proposalId",
          "type": "uint256"
        }
      ],
      "name": "Voted",
      "type": "event"
    },
    {
      "anonymous": false,
      "inputs": [
        {
          "indexed": false,
          "internalType": "address",
          "name": "voterAddress",
          "type": "address"
        }
      ],
      "name": "VoterRegistered",
      "type": "event"
    },
    {
      "anonymous": false,
      "inputs": [
        {
          "indexed": false,
          "internalType": "address",
          "name": "voterAddress",
          "type": "address"
        }
      ],
      "name": "VoterRemoved",
      "type": "event"
    },
    {
      "anonymous": false,
      "inputs": [
        {
          "indexed": false,
          "internalType": "enum Voting.WorkflowStatus",
          "name": "previousStatus",
          "type": "uint8"
        },
        {
          "indexed": false,
          "internalType": "enum Voting.WorkflowStatus",
          "name": "newStatus",
          "type": "uint8"
        }
      ],
      "name": "WorkflowStatusChange",
      "type": "event"
    },
    {
      "inputs": [],
      "name": "owner",
      "outputs": [
        {
          "internalType": "address",
          "name": "",
          "type": "address"
        }
      ],
      "stateMutability": "view",
      "type": "function"
    },
    {
      "inputs": [
        {
          "internalType": "uint256",
          "name": "",
          "type": "uint256"
        }
      ],
      "name": "proposals",
      "outputs": [
        {
          "internalType": "string",
          "name": "description",
          "type": "string"
        },
        {
          "internalType": "uint256",
          "name": "voteCount",
          "type": "uint256"
        }
      ],
      "stateMutability": "view",
      "type": "function"
    },
    {
      "inputs": [],
      "name": "renounceOwnership",
      "outputs": [],
      "stateMutability": "nonpayable",
      "type": "function"
    },
    {
      "inputs": [
        {
          "internalType": "address",
          "name": "newOwner",
          "type": "address"
        }
      ],
      "name": "transferOwnership",
      "outputs": [],
      "stateMutability": "nonpayable",
      "type": "function"
    },
    {
      "inputs": [
        {
          "internalType": "uint256",
          "name": "",
          "type": "uint256"
        }
      ],
      "name": "voterAddresses",
      "outputs": [
        {
          "internalType": "address",
          "name": "",
          "type": "address"
        }
      ],
      "stateMutability": "view",
      "type": "function"
    },
    {
      "inputs": [
        {
          "internalType": "address",
          "name": "",
          "type": "address"
        }
      ],
      "name": "voters",
      "outputs": [
        {
          "internalType": "bool",
          "name": "isRegistered",
          "type": "bool"
        },
        {
          "internalType": "bool",
          "name": "hasVoted",
          "type": "bool"
        },
        {
          "internalType": "uint256",
          "name": "votedProposalId",
          "type": "uint256"
        }
      ],
      "stateMutability": "view",
      "type": "function"
    },
    {
      "inputs": [],
      "name": "winningProposalId",
      "outputs": [
        {
          "internalType": "uint256",
          "name": "",
          "type": "uint256"
        }
      ],
      "stateMutability": "view",
      "type": "function"
    },
    {
      "inputs": [],
      "name": "workflowStatus",
      "outputs": [
        {
          "internalType": "enum Voting.WorkflowStatus",
          "name": "",
          "type": "uint8"
        }
      ],
      "stateMutability": "view",
      "type": "function"
    },
    {
      "inputs": [
        {
          "internalType": "address",
          "name": "_voterAddress",
          "type": "address"
        }
      ],
      "name": "registerVoter",
      "outputs": [],
      "stateMutability": "nonpayable",
      "type": "function"
    },
    {
      "inputs": [],
      "name": "startProposalsRegistration",
      "outputs": [],
      "stateMutability": "nonpayable",
      "type": "function"
    },
    {
      "inputs": [
        {
          "internalType": "string",
          "name": "_description",
          "type": "string"
        }
      ],
      "name": "registerProposal",
      "outputs": [],
      "stateMutability": "nonpayable",
      "type": "function"
    },
    {
      "inputs": [],
      "name": "endProposalsRegistration",
      "outputs": [],
      "stateMutability": "nonpayable",
      "type": "function"
    },
    {
      "inputs": [],
      "name": "startVotingSession",
      "outputs": [],
      "stateMutability": "nonpayable",
      "type": "function"
    },
    {
      "inputs": [
        {
          "internalType": "uint256",
          "name": "_proposalId",
          "type": "uint256"
        }
      ],
      "name": "vote",
      "outputs": [],
      "stateMutability": "nonpayable",
      "type": "function"
    },
    {
      "inputs": [],
      "name": "endVotingSession",
      "outputs": [],
      "stateMutability": "nonpayable",
      "type": "function"
    },
    {
      "inputs": [],
      "name": "tallyVotes",
      "outputs": [],
      "stateMutability": "nonpayable",
      "type": "function"
    },
    {
      "inputs": [],
      "name": "getWinner",
      "outputs": [
        {
          "internalType": "string",
          "name": "",
          "type": "string"
        }
      ],
      "stateMutability": "view",
      "type": "function"
    },
    {
      "inputs": [
        {
          "internalType": "uint256",
          "name": "_proposalId",
          "type": "uint256"
        }
      ],
      "name": "getProposal",
      "outputs": [
        {
          "internalType": "string",
          "name": "description",
          "type": "string"
        },
        {
          "internalType": "uint256",
          "name": "voteCount",
          "type": "uint256"
        }
      ],
      "stateMutability": "view",
      "type": "function"
    },
    {
      "inputs": [],
      "name": "getProposalsCount",
      "outputs": [
        {
          "internalType": "uint256",
          "name": "",
          "type": "uint256"
        }
      ],
      "stateMutability": "view",
      "type": "function"
    },
    {
      "inputs": [],
      "name": "resetVoting",
      "outputs": [],
      "stateMutability": "nonpayable",
      "type": "function"
    },
    {
      "inputs": [],
      "name": "getWorkflowStatus",
      "outputs": [
        {
          "internalType": "enum Voting.WorkflowStatus",
          "name": "",
          "type": "uint8"
        }
      ],
      "stateMutability": "view",
      "type": "function"
    },
    {
      "inputs": [
        {
          "internalType": "uint256",
          "name": "index",
          "type": "uint256"
        }
      ],
      "name": "getVoterAddress",
      "outputs": [
        {
          "internalType": "address",
          "name": "",
          "type": "address"
        }
      ],
      "stateMutability": "view",
      "type": "function"
    },
    {
      "inputs": [],
      "name": "getVoterCount",
      "outputs": [
        {
          "internalType": "uint256",
          "name": "",
          "type": "uint256"
        }
      ],
      "stateMutability": "view",
      "type": "function"
    },
    {
      "inputs": [
        {
          "internalType": "address",
          "name": "_voterAddress",
          "type": "address"
        }
      ],
      "name": "removeVoter",
      "outputs": [],
      "stateMutability": "nonpayable",
      "type": "function"
    }
  ],
  "bytecode": "0x608060405234801561001057600080fd5b5061001a3361001f565b61006f565b600080546001600160a01b038381166001600160a01b0319831681178455604051919092169283917f8be0079c531659141344cd1fd0a4f28419497f9722a3daafe3b4186f6b6457e09190a35050565b6119818061007e6000396000f3fe608060405234801561001057600080fd5b50600436106101585760003560e01c806398e527d3116100c3578063d83b2c051161007c578063d83b2c05146102df578063dd0e2373146102f2578063e09b8c7914610305578063ee74c6781461030d578063f2fde38b14610315578063f75d64a61461032857600080fd5b806398e527d314610241578063a1edffa214610249578063a3ec138d1461026a578063a7bfab16146102bb578063c64963c5146102c3578063c7f758a8146102cc57600080fd5b80636c297445116101155780636c297445146101dc578063715018a6146101e4578063856e698c146101ec57806386c1ff68146101f45780638da5cb5b146102075780638e7ea5b21461022c57600080fd5b80630121b93f1461015d578063013cf08b1461017257806311174a291461019c5780632f95355b146101ae578063378a2178146101c157806338db6dd3146101c9575b600080fd5b61017061016b3660046114f0565b61033a565b005b6101856101803660046114f0565b6104db565b60405161019392919061154f565b60405180910390f35b6002545b604051908152602001610193565b6101706101bc366004611587565b610597565b6101706106b7565b6101706101d7366004611638565b6107e6565b610170610990565b610170610a1e565b610170610a32565b610170610202366004611638565b610c16565b6000546001600160a01b03165b6040516001600160a01b039091168152602001610193565b610234610e59565b6040516101939190611668565b6003546101a0565b60005461025d90600160a01b900460ff1681565b60405161019391906116b3565b61029e610278366004611638565b6001602081905260009182526040909120805491015460ff808316926101009004169083565b604080519315158452911515602084015290820152606001610193565b610170610f7c565b6101a060045481565b6101856102da3660046114f0565b611030565b6102146102ed3660046114f0565b611141565b6102146103003660046114f0565b611171565b61017061119b565b610170611254565b610170610323366004611638565b611317565b600054600160a01b900460ff1661025d565b3360009081526001602052604090205460ff166103725760405162461bcd60e51b8152600401610369906116c7565b60405180910390fd5b6003600054600160a01b900460ff1660058111156103925761039261167b565b146103df5760405162461bcd60e51b815260206004820152601c60248201527f566f74696e672073657373696f6e206973206e6f7420616374697665000000006044820152606401610369565b33600090815260016020526040902054610100900460ff16156104445760405162461bcd60e51b815260206004820152601760248201527f566f7465722068617320616c726561647920766f7465640000000000000000006044820152606401610369565b336000908152600160208190526040909120805461ff00191661010017815501819055600380548290811061047b5761047b611715565b60009182526020822060016002909202010180549161049983611741565b909155505060408051338152602081018390527f4d99b957a2bc29a30ebd96a7be8e68fe50a3c701db28a91436490b7d53870ca491015b60405180910390a150565b600381815481106104eb57600080fd5b906000526020600020906002020160009150905080600001805461050e9061175a565b80601f016020809104026020016040519081016040528092919081815260200182805461053a9061175a565b80156105875780601f1061055c57610100808354040283529160200191610587565b820191906000526020600020905b81548152906001019060200180831161056a57829003601f168201915b5050505050908060010154905082565b3360009081526001602052604090205460ff166105c65760405162461bcd60e51b8152600401610369906116c7565b6001600054600160a01b900460ff1660058111156105e6576105e661167b565b146106035760405162461bcd60e51b815260040161036990611794565b60408051808201909152818152600060208201819052600380546001810182559152815160029091027fc2575a0e9e593c00f959f8c92f12db2869c3395a3b0502d05e2516446f71f85b0190819061065b9082611827565b5060209190910151600191820155600354600091610678916118e7565b90507f92e393e9b54e2f801d3ea4beb0c5e71a21cc34a5d34b77d0fb8a3aa1650dc18f816040516106ab91815260200190565b60405180910390a15050565b6106bf611390565b6004600054600160a01b900460ff1660058111156106df576106df61167b565b1461072c5760405162461bcd60e51b815260206004820152601c60248201527f566f74696e672073657373696f6e20686173206e6f7420656e646564000000006044820152606401610369565b6000805460ff60a01b1916600560a01b178155805b6003548110156107b857816003828154811061075f5761075f611715565b90600052602060002090600202016001015411156107a6576003818154811061078a5761078a611715565b9060005260206000209060020201600101549150806004819055505b806107b081611741565b915050610741565b5060005460405160008051602061192c833981519152916104d091600491600160a01b900460ff16906118fa565b6107ee611390565b60008054600160a01b900460ff16600581111561080d5761080d61167b565b1461085a5760405162461bcd60e51b815260206004820152601d60248201527f566f7465727320726567697374726174696f6e2068617320656e6465640000006044820152606401610369565b6001600160a01b03811660009081526001602052604090205460ff16156108c35760405162461bcd60e51b815260206004820152601860248201527f566f74657220616c7265616479207265676973746572656400000000000000006044820152606401610369565b604080516060810182526001808252600060208084018281528486018381526001600160a01b03881680855285845287852096518754935161ffff1990941690151561ff001916176101009315159390930292909217865551948401949094556002805493840181559091527f405787fa12a823e0f2b7631cc41b3ba8828b3321ca811111fa75cd3aa3bb5ace90910180546001600160a01b0319168317905591519081527fb6be2187d059cc2a55fe29e0e503b566e1e0f8c8780096e185429350acffd3dd91016104d0565b610998611390565b6001600054600160a01b900460ff1660058111156109b8576109b861167b565b146109d55760405162461bcd60e51b815260040161036990611794565b6000805460ff60a01b1916600160a11b179081905560405160008051602061192c83398151915291610a1491600191600160a01b900460ff16906118fa565b60405180910390a1565b610a26611390565b610a3060006113ea565b565b610a3a611390565b60008054600160a01b900460ff166005811115610a5957610a5961167b565b1480610a8257506005600054600160a01b900460ff166005811115610a8057610a8061167b565b145b80610aaa57506002600054600160a01b900460ff166005811115610aa857610aa861167b565b145b610b1c5760405162461bcd60e51b815260206004820152603d60248201527f43616e206f6e6c7920726573657420647572696e67205265676973746572696e60448201527f67566f74657273206f7220616674657220566f74657354616c6c6965640000006064820152608401610369565b60005b600354811015610b6457600060038281548110610b3e57610b3e611715565b600091825260209091206001600290920201015580610b5c81611741565b915050610b1f565b5060005b600254811015610bc857600060028281548110610b8757610b87611715565b60009182526020808320909101546001600160a01b0316825260019081905260408220805461ffff1916815501555080610bc081611741565b915050610b68565b50610bd56003600061143a565b610be16002600061145b565b6000805460ff60a01b191680825560405160008051602061192c83398151915292610a1492600160a01b900460ff16916118fa565b610c1e611390565b60008054600160a01b900460ff166005811115610c3d57610c3d61167b565b14610c8a5760405162461bcd60e51b815260206004820152601d60248201527f566f7465727320726567697374726174696f6e2068617320656e6465640000006044820152606401610369565b6001600160a01b03811660009081526001602052604090205460ff16610cf25760405162461bcd60e51b815260206004820152601760248201527f566f746572206973206e6f7420726567697374657265640000000000000000006044820152606401610369565b6001600160a01b03811660009081526001602081905260408220805461ffff19168155018190555b600254811015610e1f57816001600160a01b031660028281548110610d4157610d41611715565b6000918252602090912001546001600160a01b031603610e0d5760028054610d6b906001906118e7565b81548110610d7b57610d7b611715565b600091825260209091200154600280546001600160a01b039092169183908110610da757610da7611715565b9060005260206000200160006101000a8154816001600160a01b0302191690836001600160a01b031602179055506002805480610de657610de6611915565b600082815260209020810160001990810180546001600160a01b0319169055019055610e1f565b80610e1781611741565b915050610d1a565b506040516001600160a01b03821681527fa14a79af012d1756818f9bd59ccfc9ad185a71df86b9392d9059d9e6faf6d644906020016104d0565b60606005600054600160a01b900460ff166005811115610e7b57610e7b61167b565b14610ec85760405162461bcd60e51b815260206004820152601b60248201527f566f7465732068617665206e6f74206265656e2074616c6c69656400000000006044820152606401610369565b600360045481548110610edd57610edd611715565b90600052602060002090600202016000018054610ef99061175a565b80601f0160208091040260200160405190810160405280929190818152602001828054610f259061175a565b8015610f725780601f10610f4757610100808354040283529160200191610f72565b820191906000526020600020905b815481529060010190602001808311610f5557829003601f168201915b5050505050905090565b610f84611390565b6003600054600160a01b900460ff166005811115610fa457610fa461167b565b14610ff15760405162461bcd60e51b815260206004820152601c60248201527f566f74696e672073657373696f6e206973206e6f7420616374697665000000006044820152606401610369565b6000805460ff60a01b1916600160a21b179081905560405160008051602061192c83398151915291610a1491600391600160a01b900460ff16906118fa565b600354606090600090831061107d5760405162461bcd60e51b8152602060048201526013602482015272125b9d985b1a59081c1c9bdc1bdcd85b081251606a1b6044820152606401610369565b60006003848154811061109257611092611715565b906000526020600020906002020190508060000181600101548180546110b79061175a565b80601f01602080910402602001604051908101604052809291908181526020018280546110e39061175a565b80156111305780601f1061110557610100808354040283529160200191611130565b820191906000526020600020905b81548152906001019060200180831161111357829003601f168201915b505050505091509250925050915091565b60006002828154811061115657611156611715565b6000918252602090912001546001600160a01b031692915050565b6002818154811061118157600080fd5b6000918252602090912001546001600160a01b0316905081565b6111a3611390565b60008054600160a01b900460ff1660058111156111c2576111c261167b565b1461121b5760405162461bcd60e51b815260206004820152602360248201527f566f7465727320726567697374726174696f6e206973206e6f7420636f6d706c60448201526265746560e81b6064820152608401610369565b6000805460ff60a01b1916600160a01b90811780835560405160008051602061192c83398151915293610a149390920460ff16906118fa565b61125c611390565b6002600054600160a01b900460ff16600581111561127c5761127c61167b565b146112d85760405162461bcd60e51b815260206004820152602660248201527f50726f706f73616c7320726567697374726174696f6e206973206e6f7420636f6044820152656d706c65746560d01b6064820152608401610369565b6000805460ff60a01b1916600360a01b179081905560405160008051602061192c83398151915291610a1491600291600160a01b900460ff16906118fa565b61131f611390565b6001600160a01b0381166113845760405162461bcd60e51b815260206004820152602660248201527f4f776e61626c653a206e6577206f776e657220697320746865207a65726f206160448201526564647265737360d01b6064820152608401610369565b61138d816113ea565b50565b6000546001600160a01b03163314610a305760405162461bcd60e51b815260206004820181905260248201527f4f776e61626c653a2063616c6c6572206973206e6f7420746865206f776e65726044820152606401610369565b600080546001600160a01b038381166001600160a01b0319831681178455604051919092169283917f8be0079c531659141344cd1fd0a4f28419497f9722a3daafe3b4186f6b6457e09190a35050565b508054600082556002029060005260206000209081019061138d9190611479565b508054600082559060005260206000209081019061138d91906114a1565b8082111561149d57600061148d82826114b6565b5060006001820155600201611479565b5090565b5b8082111561149d57600081556001016114a2565b5080546114c29061175a565b6000825580601f106114d2575050565b601f01602090049060005260206000209081019061138d91906114a1565b60006020828403121561150257600080fd5b5035919050565b6000815180845260005b8181101561152f57602081850181015186830182015201611513565b506000602082860101526020601f19601f83011685010191505092915050565b6040815260006115626040830185611509565b90508260208301529392505050565b634e487b7160e01b600052604160045260246000fd5b60006020828403121561159957600080fd5b813567ffffffffffffffff808211156115b157600080fd5b818401915084601f8301126115c557600080fd5b8135818111156115d7576115d7611571565b604051601f8201601f19908116603f011681019083821181831017156115ff576115ff611571565b8160405282815287602084870101111561161857600080fd5b826020860160208301376000928101602001929092525095945050505050565b60006020828403121561164a57600080fd5b81356001600160a01b038116811461166157600080fd5b9392505050565b6020815260006116616020830184611509565b634e487b7160e01b600052602160045260246000fd5b600681106116af57634e487b7160e01b600052602160045260246000fd5b9052565b602081016116c18284611691565b92915050565b6020808252602e908201527f4f6e6c79207265676973746572656420766f746572732063616e20706572666f60408201526d3936903a3434b99030b1ba34b7b760911b606082015260800190565b634e487b7160e01b600052603260045260246000fd5b634e487b7160e01b600052601160045260246000fd5b6000600182016117535761175361172b565b5060010190565b600181811c9082168061176e57607f821691505b60208210810361178e57634e487b7160e01b600052602260045260246000fd5b50919050565b60208082526024908201527f50726f706f73616c7320726567697374726174696f6e206973206e6f742061636040820152637469766560e01b606082015260800190565b601f82111561182257600081815260208120601f850160051c810160208610156117ff5750805b601f850160051c820191505b8181101561181e5782815560010161180b565b5050505b505050565b815167ffffffffffffffff81111561184157611841611571565b6118558161184f845461175a565b846117d8565b602080601f83116001811461188a57600084156118725750858301515b600019600386901b1c1916600185901b17855561181e565b600085815260208120601f198616915b828110156118b95788860151825594840194600190910190840161189a565b50858210156118d75787850151600019600388901b60f8161c191681555b5050505050600190811b01905550565b818103818111156116c1576116c161172b565b604081016119088285611691565b6116616020830184611691565b634e487b7160e01b600052603160045260246000fdfe0a97a4ee45751e2abf3e4fc8946939630b11b371ea8ae39ccdc3056e98f5cc3fa2646970667358221220868feb184b2196499415700d554783830f3bf1ae96f2060e70e70caa3c9b5e6164736f6c63430008130033",
  "immutableReferences": {},
  "source": "// SPDX-License-Identifier: MIT\npragma solidity ^0.8.19;\n\nimport \"@openzeppelin/contracts/access/Ownable.sol\";\n\n// Contrat de vote\ncontract Voting is Ownable {\n    // Structure reprsentant un lecteur\n    struct Voter {\n        bool isRegistered; // Est-ce que l'lecteur est enregistr\n        bool hasVoted; // Est-ce que l'lecteur a vot\n        uint votedProposalId; // Identifiant de la proposition pour laquelle l'lecteur a vot\n    }\n\n    // Structure reprsentant une proposition\n    struct Proposal {\n        string description; // Description de la proposition\n        uint voteCount; // Nombre de votes pour la proposition\n    }\n\n    // numration dcrivant les tapes du processus de vote\n    enum WorkflowStatus {\n        RegisteringVoters, // Enregistrement des lecteurs\n        ProposalsRegistrationStarted, // Dbut de l'enregistrement des propositions\n        ProposalsRegistrationEnded, // Fin de l'enregistrement des propositions\n        VotingSessionStarted, // Dbut de la session de vote\n        VotingSessionEnded, // Fin de la session de vote\n        VotesTallied // Votes comptabiliss\n    }\n\n    // Variable pour suivre l'tat actuel du processus de vote\n    WorkflowStatus public workflowStatus;\n    // Mapping des lecteurs avec leur adresse\n    mapping(address => Voter) public voters;\n    // Tableau pour stocker les adresses des lecteurs\n    address[] public voterAddresses;\n    // Tableau pour stocker les propositions\n    Proposal[] public proposals;\n    // Identifiant de la proposition gagnante\n    uint public winningProposalId;\n\n    // vnements\n    event VoterRegistered(address voterAddress);\n    event WorkflowStatusChange(\n        WorkflowStatus previousStatus,\n        WorkflowStatus newStatus\n    );\n    event ProposalRegistered(uint proposalId);\n    event Voted(address voter, uint proposalId);\n    event VoterRemoved(address voterAddress);\n\n    // Modificateur pour vrifier si l'metteur est un lecteur enregistr\n    modifier onlyRegisteredVoter() {\n        require(\n            voters[msg.sender].isRegistered,\n            \"Only registered voters can perform this action\"\n        );\n        _;\n    }\n\n    // Fonction pour enregistrer un lecteur\n    function registerVoter(address _voterAddress) public onlyOwner {\n        require(\n            workflowStatus == WorkflowStatus.RegisteringVoters,\n            \"Voters registration has ended\"\n        );\n        require(\n            !voters[_voterAddress].isRegistered,\n            \"Voter already registered\"\n        );\n        voters[_voterAddress] = Voter(true, false, 0);\n        voterAddresses.push(_voterAddress); // Ajoute l'adresse de l'lecteur au tableau voterAddresses\n        emit VoterRegistered(_voterAddress);\n    }\n\n    // Fonction pour dmarrer l'enregistrement des propositions\n    function startProposalsRegistration() public onlyOwner {\n        require(\n            workflowStatus == WorkflowStatus.RegisteringVoters,\n            \"Voters registration is not complete\"\n        );\n        workflowStatus = WorkflowStatus.ProposalsRegistrationStarted;\n        emit WorkflowStatusChange(\n            WorkflowStatus.RegisteringVoters,\n            workflowStatus\n        );\n    }\n\n    // Fonction pour enregistrer une proposition\n    function registerProposal(\n        string memory _description\n    ) public onlyRegisteredVoter {\n        require(\n            workflowStatus == WorkflowStatus.ProposalsRegistrationStarted,\n            \"Proposals registration is not active\"\n        );\n        proposals.push(Proposal(_description, 0));\n        uint proposalId = proposals.length - 1;\n        emit ProposalRegistered(proposalId);\n    }\n\n    // Fonction pour mettre fin  l'enregistrement des propositions\n    function endProposalsRegistration() public onlyOwner {\n        require(\n            workflowStatus == WorkflowStatus.ProposalsRegistrationStarted,\n            \"Proposals registration is not active\"\n        );\n        workflowStatus = WorkflowStatus.ProposalsRegistrationEnded;\n        emit WorkflowStatusChange(\n            WorkflowStatus.ProposalsRegistrationStarted,\n            workflowStatus\n        );\n    }\n\n    // Fonction pour dmarrer la session de vote\n    function startVotingSession() public onlyOwner {\n        require(\n            workflowStatus == WorkflowStatus.ProposalsRegistrationEnded,\n            \"Proposals registration is not complete\"\n        );\n        workflowStatus = WorkflowStatus.VotingSessionStarted;\n        emit WorkflowStatusChange(\n            WorkflowStatus.ProposalsRegistrationEnded,\n            workflowStatus\n        );\n    }\n\n    // Fonction pour voter pour une proposition\n    function vote(uint _proposalId) public onlyRegisteredVoter {\n        require(\n            workflowStatus == WorkflowStatus.VotingSessionStarted,\n            \"Voting session is not active\"\n        );\n        require(!voters[msg.sender].hasVoted, \"Voter has already voted\");\n\n        voters[msg.sender].hasVoted = true;\n        voters[msg.sender].votedProposalId = _proposalId;\n\n        proposals[_proposalId].voteCount++;\n\n        emit Voted(msg.sender, _proposalId);\n    }\n\n    // Fonction pour mettre fin  la session de vote\n    function endVotingSession() public onlyOwner {\n        require(\n            workflowStatus == WorkflowStatus.VotingSessionStarted,\n            \"Voting session is not active\"\n        );\n        workflowStatus = WorkflowStatus.VotingSessionEnded;\n        emit WorkflowStatusChange(\n            WorkflowStatus.VotingSessionStarted,\n            workflowStatus\n        );\n    }\n\n    // Fonction pour comptabiliser les votes\n    function tallyVotes() public onlyOwner {\n        require(\n            workflowStatus == WorkflowStatus.VotingSessionEnded,\n            \"Voting session has not ended\"\n        );\n        workflowStatus = WorkflowStatus.VotesTallied;\n\n        uint winningVoteCount = 0;\n\n        for (uint i = 0; i < proposals.length; i++) {\n            if (proposals[i].voteCount > winningVoteCount) {\n                winningVoteCount = proposals[i].voteCount;\n                winningProposalId = i;\n            }\n        }\n\n        emit WorkflowStatusChange(\n            WorkflowStatus.VotingSessionEnded,\n            workflowStatus\n        );\n    }\n\n    // Fonction pour obtenir la description de la proposition gagnante\n    function getWinner() public view returns (string memory) {\n        require(\n            workflowStatus == WorkflowStatus.VotesTallied,\n            \"Votes have not been tallied\"\n        );\n        return proposals[winningProposalId].description;\n    }\n\n    // Fonction pour obtenir les dtails d'une proposition\n    function getProposal(\n        uint _proposalId\n    ) public view returns (string memory description, uint voteCount) {\n        require(_proposalId < proposals.length, \"Invalid proposal ID\");\n        Proposal storage proposal = proposals[_proposalId];\n        return (proposal.description, proposal.voteCount);\n    }\n\n    // Fonction pour obtenir le nombre total de propositions\n    function getProposalsCount() public view returns (uint) {\n        return proposals.length;\n    }\n\n    // Fonction pour rinitialiser le vote\n    function resetVoting() public onlyOwner {\n        require(\n            workflowStatus == WorkflowStatus.RegisteringVoters ||\n                workflowStatus == WorkflowStatus.VotesTallied ||\n                workflowStatus == WorkflowStatus.ProposalsRegistrationEnded,\n            \"Can only reset during RegisteringVoters or after VotesTallied\"\n        );\n\n        // Rinitialiser le nombre de votes pour chaque proposition\n        for (uint i = 0; i < proposals.length; i++) {\n            proposals[i].voteCount = 0;\n        }\n\n        // Parcourir le tableau voterAddresses pour rinitialiser leur statut hasVoted\n        for (uint i = 0; i < voterAddresses.length; i++) {\n            address voterAddress = voterAddresses[i];\n            voters[voterAddress].hasVoted = false;\n            // Supprimer l'lecteur de la correspondance\n            delete voters[voterAddress];\n        }\n\n        // Supprimer toutes les propositions\n        delete proposals;\n\n        // Supprimer toutes les adresses des lecteurs\n        delete voterAddresses;\n\n        // Changer le statut du workflow en RegisteringVoters\n        workflowStatus = WorkflowStatus.RegisteringVoters;\n        emit WorkflowStatusChange(\n            workflowStatus,\n            WorkflowStatus.RegisteringVoters\n        );\n    }\n\n    // Fonction pour obtenir le statut du workflow\n    function getWorkflowStatus() public view returns (WorkflowStatus) {\n        return workflowStatus;\n    }\n\n    // Fonction pour obtenir l'adresse d'un lecteur\n    function getVoterAddress(uint index) public view returns (address) {\n        return voterAddresses[index];\n    }\n\n    // Fonction pour obtenir le nombre d'lecteurs\n    function getVoterCount() public view returns (uint) {\n        return voterAddresses.length;\n    }\n\n    // Fonction pour supprimer un lecteur\n    function removeVoter(address _voterAddress) public onlyOwner {\n        require(\n            workflowStatus == WorkflowStatus.RegisteringVoters,\n            \"Voters registration has ended\"\n        );\n        require(voters[_voterAddress].isRegistered, \"Voter is not registered\");\n\n        // Supprimer l'lecteur de la correspondance\n        delete voters[_voterAddress];\n\n        // Trouver l'lecteur dans le tableau voterAddresses et le supprimer\n        for (uint i = 0; i < voterAddresses.length; i++) {\n            if (voterAddresses[i] == _voterAddress) {\n                voterAddresses[i] = voterAddresses[voterAddresses.length - 1];\n                voterAddresses.pop();\n                break;\n            }\n        }\n\n        emit VoterRemoved(_voterAddress);\n    }\n\n}\n",
  "sourcePath": "/Users/lucasdelicourt/Documents/GitHub/atelier-blockchain/contracts/Voting.sol",
  "compiler": {
    "name": "solc",
    "version": "0.8.19+commit.7dd6d404.Emscripten.clang"
  },
  "schemaVersion": "3.4.13",
  "updatedAt": "2023-05-07T15:29:28.705Z",
  "devdoc": {
    "kind": "dev",
    "methods": {
      "owner()": {
        "details": "Returns the address of the current owner."
      },
      "renounceOwnership()": {
        "details": "Leaves the contract without owner. It will not be possible to call `onlyOwner` functions anymore. Can only be called by the current owner. NOTE: Renouncing ownership will leave the contract without an owner, thereby removing any functionality that is only available to the owner."
      },
      "transferOwnership(address)": {
        "details": "Transfers ownership of the contract to a new account (`newOwner`). Can only be called by the current owner."
      }
    },
    "version": 1
  },
  "userdoc": {
    "kind": "user",
    "methods": {},
    "version": 1
  }
}