{
  "contractName": "Voting",
  "abi": [
    {
      "anonymous": false,
      "inputs": [
        {
          "indexed": true,
          "internalType": "address",
          "name": "previousOwner",
          "type": "address"
        },
        {
          "indexed": true,
          "internalType": "address",
          "name": "newOwner",
          "type": "address"
        }
      ],
      "name": "OwnershipTransferred",
      "type": "event"
    },
    {
      "anonymous": false,
      "inputs": [
        {
          "indexed": false,
          "internalType": "uint256",
          "name": "proposalId",
          "type": "uint256"
        }
      ],
      "name": "ProposalRegistered",
      "type": "event"
    },
    {
      "anonymous": false,
      "inputs": [
        {
          "indexed": false,
          "internalType": "address",
          "name": "voter",
          "type": "address"
        },
        {
          "indexed": false,
          "internalType": "uint256",
          "name": "proposalId",
          "type": "uint256"
        }
      ],
      "name": "Voted",
      "type": "event"
    },
    {
      "anonymous": false,
      "inputs": [
        {
          "indexed": false,
          "internalType": "address",
          "name": "voterAddress",
          "type": "address"
        }
      ],
      "name": "VoterRegistered",
      "type": "event"
    },
    {
      "anonymous": false,
      "inputs": [
        {
          "indexed": false,
          "internalType": "enum Voting.WorkflowStatus",
          "name": "previousStatus",
          "type": "uint8"
        },
        {
          "indexed": false,
          "internalType": "enum Voting.WorkflowStatus",
          "name": "newStatus",
          "type": "uint8"
        }
      ],
      "name": "WorkflowStatusChange",
      "type": "event"
    },
    {
      "inputs": [],
      "name": "owner",
      "outputs": [
        {
          "internalType": "address",
          "name": "",
          "type": "address"
        }
      ],
      "stateMutability": "view",
      "type": "function"
    },
    {
      "inputs": [
        {
          "internalType": "uint256",
          "name": "",
          "type": "uint256"
        }
      ],
      "name": "proposals",
      "outputs": [
        {
          "internalType": "string",
          "name": "description",
          "type": "string"
        },
        {
          "internalType": "uint256",
          "name": "voteCount",
          "type": "uint256"
        }
      ],
      "stateMutability": "view",
      "type": "function"
    },
    {
      "inputs": [],
      "name": "renounceOwnership",
      "outputs": [],
      "stateMutability": "nonpayable",
      "type": "function"
    },
    {
      "inputs": [
        {
          "internalType": "address",
          "name": "newOwner",
          "type": "address"
        }
      ],
      "name": "transferOwnership",
      "outputs": [],
      "stateMutability": "nonpayable",
      "type": "function"
    },
    {
      "inputs": [
        {
          "internalType": "address",
          "name": "",
          "type": "address"
        }
      ],
      "name": "voters",
      "outputs": [
        {
          "internalType": "bool",
          "name": "isRegistered",
          "type": "bool"
        },
        {
          "internalType": "bool",
          "name": "hasVoted",
          "type": "bool"
        },
        {
          "internalType": "uint256",
          "name": "votedProposalId",
          "type": "uint256"
        }
      ],
      "stateMutability": "view",
      "type": "function"
    },
    {
      "inputs": [],
      "name": "winningProposalId",
      "outputs": [
        {
          "internalType": "uint256",
          "name": "",
          "type": "uint256"
        }
      ],
      "stateMutability": "view",
      "type": "function"
    },
    {
      "inputs": [],
      "name": "workflowStatus",
      "outputs": [
        {
          "internalType": "enum Voting.WorkflowStatus",
          "name": "",
          "type": "uint8"
        }
      ],
      "stateMutability": "view",
      "type": "function"
    },
    {
      "inputs": [
        {
          "internalType": "address",
          "name": "_voterAddress",
          "type": "address"
        }
      ],
      "name": "registerVoter",
      "outputs": [],
      "stateMutability": "nonpayable",
      "type": "function"
    },
    {
      "inputs": [],
      "name": "startProposalsRegistration",
      "outputs": [],
      "stateMutability": "nonpayable",
      "type": "function"
    },
    {
      "inputs": [
        {
          "internalType": "string",
          "name": "_description",
          "type": "string"
        }
      ],
      "name": "registerProposal",
      "outputs": [],
      "stateMutability": "nonpayable",
      "type": "function"
    },
    {
      "inputs": [],
      "name": "endProposalsRegistration",
      "outputs": [],
      "stateMutability": "nonpayable",
      "type": "function"
    },
    {
      "inputs": [],
      "name": "startVotingSession",
      "outputs": [],
      "stateMutability": "nonpayable",
      "type": "function"
    },
    {
      "inputs": [
        {
          "internalType": "uint256",
          "name": "_proposalId",
          "type": "uint256"
        }
      ],
      "name": "vote",
      "outputs": [],
      "stateMutability": "nonpayable",
      "type": "function"
    },
    {
      "inputs": [],
      "name": "endVotingSession",
      "outputs": [],
      "stateMutability": "nonpayable",
      "type": "function"
    },
    {
      "inputs": [],
      "name": "tallyVotes",
      "outputs": [],
      "stateMutability": "nonpayable",
      "type": "function"
    },
    {
      "inputs": [],
      "name": "getWinner",
      "outputs": [
        {
          "internalType": "string",
          "name": "",
          "type": "string"
        }
      ],
      "stateMutability": "view",
      "type": "function"
    },
    {
      "inputs": [
        {
          "internalType": "uint256",
          "name": "_proposalId",
          "type": "uint256"
        }
      ],
      "name": "getProposal",
      "outputs": [
        {
          "internalType": "string",
          "name": "description",
          "type": "string"
        },
        {
          "internalType": "uint256",
          "name": "voteCount",
          "type": "uint256"
        }
      ],
      "stateMutability": "view",
      "type": "function"
    },
    {
      "inputs": [],
      "name": "getProposalsCount",
      "outputs": [
        {
          "internalType": "uint256",
          "name": "",
          "type": "uint256"
        }
      ],
      "stateMutability": "view",
      "type": "function"
    }
  ],
  "bytecode": "0x608060405234801561001057600080fd5b5061001a3361001f565b61006f565b600080546001600160a01b038381166001600160a01b0319831681178455604051919092169283917f8be0079c531659141344cd1fd0a4f28419497f9722a3daafe3b4186f6b6457e09190a35050565b61134b8061007e6000396000f3fe608060405234801561001057600080fd5b50600436106101165760003560e01c806398e527d3116100a2578063c64963c511610071578063c64963c514610254578063c7f758a81461025d578063e09b8c7914610270578063ee74c67814610278578063f2fde38b1461028057600080fd5b806398e527d3146101c8578063a1edffa2146101da578063a3ec138d146101fb578063a7bfab161461024c57600080fd5b806338db6dd3116100e957806338db6dd3146101755780636c29744514610188578063715018a6146101905780638da5cb5b146101985780638e7ea5b2146101b357600080fd5b80630121b93f1461011b578063013cf08b146101305780632f95355b1461015a578063378a21781461016d575b600080fd5b61012e610129366004610ed0565b610293565b005b61014361013e366004610ed0565b610434565b604051610151929190610f2f565b60405180910390f35b61012e610168366004610f67565b6104f0565b61012e61060f565b61012e610183366004611018565b61073b565b61012e6108a7565b61012e610935565b6000546040516001600160a01b039091168152602001610151565b6101bb610949565b6040516101519190611048565b6002545b604051908152602001610151565b6000546101ee90600160a01b900460ff1681565b6040516101519190611093565b61022f610209366004611018565b6001602081905260009182526040909120805491015460ff808316926101009004169083565b604080519315158452911515602084015290820152606001610151565b61012e610a6c565b6101cc60035481565b61014361026b366004610ed0565b610b20565b61012e610c31565b61012e610cea565b61012e61028e366004611018565b610dad565b3360009081526001602052604090205460ff166102cb5760405162461bcd60e51b81526004016102c2906110a7565b60405180910390fd5b6003600054600160a01b900460ff1660058111156102eb576102eb61105b565b146103385760405162461bcd60e51b815260206004820152601c60248201527f566f74696e672073657373696f6e206973206e6f74206163746976650000000060448201526064016102c2565b33600090815260016020526040902054610100900460ff161561039d5760405162461bcd60e51b815260206004820152601760248201527f566f7465722068617320616c726561647920766f74656400000000000000000060448201526064016102c2565b336000908152600160208190526040909120805461ff0019166101001781550181905560028054829081106103d4576103d46110f5565b6000918252602082206001600290920201018054916103f283611121565b909155505060408051338152602081018390527f4d99b957a2bc29a30ebd96a7be8e68fe50a3c701db28a91436490b7d53870ca491015b60405180910390a150565b6002818154811061044457600080fd5b90600052602060002090600202016000915090508060000180546104679061113a565b80601f01602080910402602001604051908101604052809291908181526020018280546104939061113a565b80156104e05780601f106104b5576101008083540402835291602001916104e0565b820191906000526020600020905b8154815290600101906020018083116104c357829003601f168201915b5050505050908060010154905082565b3360009081526001602052604090205460ff1661051f5760405162461bcd60e51b81526004016102c2906110a7565b6001600054600160a01b900460ff16600581111561053f5761053f61105b565b1461055c5760405162461bcd60e51b81526004016102c290611174565b604080518082019091528181526000602082018190526002805460018101825591819052825191027f405787fa12a823e0f2b7631cc41b3ba8828b3321ca811111fa75cd3aa3bb5ace019081906105b39082611207565b50602091909101516001918201556002546000916105d0916112c7565b90507f92e393e9b54e2f801d3ea4beb0c5e71a21cc34a5d34b77d0fb8a3aa1650dc18f8160405161060391815260200190565b60405180910390a15050565b610617610e26565b6004600054600160a01b900460ff1660058111156106375761063761105b565b146106845760405162461bcd60e51b815260206004820152601c60248201527f566f74696e672073657373696f6e20686173206e6f7420656e6465640000000060448201526064016102c2565b6000805460ff60a01b1916600560a01b17815580805b60025481101561070d5782600282815481106106b8576106b86110f5565b90600052602060002090600202016001015411156106fb57600281815481106106e3576106e36110f5565b90600052602060002090600202016001015492508091505b8061070581611121565b91505061069a565b506000546040516000805160206112f68339815191529161060391600491600160a01b900460ff16906112da565b610743610e26565b60008054600160a01b900460ff1660058111156107625761076261105b565b146107af5760405162461bcd60e51b815260206004820152601d60248201527f566f7465727320726567697374726174696f6e2068617320656e64656400000060448201526064016102c2565b6001600160a01b03811660009081526001602052604090205460ff16156108185760405162461bcd60e51b815260206004820152601860248201527f566f74657220616c72656164792072656769737465726564000000000000000060448201526064016102c2565b604080516060810182526001808252600060208084018281528486018381526001600160a01b0388168085528584529387902095518654925161ffff1990931690151561ff001916176101009215159290920291909117855551939092019290925591519081527fb6be2187d059cc2a55fe29e0e503b566e1e0f8c8780096e185429350acffd3dd9101610429565b6108af610e26565b6001600054600160a01b900460ff1660058111156108cf576108cf61105b565b146108ec5760405162461bcd60e51b81526004016102c290611174565b6000805460ff60a01b1916600160a11b17908190556040516000805160206112f68339815191529161092b91600191600160a01b900460ff16906112da565b60405180910390a1565b61093d610e26565b6109476000610e80565b565b60606005600054600160a01b900460ff16600581111561096b5761096b61105b565b146109b85760405162461bcd60e51b815260206004820152601b60248201527f566f7465732068617665206e6f74206265656e2074616c6c696564000000000060448201526064016102c2565b6002600354815481106109cd576109cd6110f5565b906000526020600020906002020160000180546109e99061113a565b80601f0160208091040260200160405190810160405280929190818152602001828054610a159061113a565b8015610a625780601f10610a3757610100808354040283529160200191610a62565b820191906000526020600020905b815481529060010190602001808311610a4557829003601f168201915b5050505050905090565b610a74610e26565b6003600054600160a01b900460ff166005811115610a9457610a9461105b565b14610ae15760405162461bcd60e51b815260206004820152601c60248201527f566f74696e672073657373696f6e206973206e6f74206163746976650000000060448201526064016102c2565b6000805460ff60a01b1916600160a21b17908190556040516000805160206112f68339815191529161092b91600391600160a01b900460ff16906112da565b6002546060906000908310610b6d5760405162461bcd60e51b8152602060048201526013602482015272125b9d985b1a59081c1c9bdc1bdcd85b081251606a1b60448201526064016102c2565b600060028481548110610b8257610b826110f5565b90600052602060002090600202019050806000018160010154818054610ba79061113a565b80601f0160208091040260200160405190810160405280929190818152602001828054610bd39061113a565b8015610c205780601f10610bf557610100808354040283529160200191610c20565b820191906000526020600020905b815481529060010190602001808311610c0357829003601f168201915b505050505091509250925050915091565b610c39610e26565b60008054600160a01b900460ff166005811115610c5857610c5861105b565b14610cb15760405162461bcd60e51b815260206004820152602360248201527f566f7465727320726567697374726174696f6e206973206e6f7420636f6d706c60448201526265746560e81b60648201526084016102c2565b6000805460ff60a01b1916600160a01b9081178083556040516000805160206112f68339815191529361092b9390920460ff16906112da565b610cf2610e26565b6002600054600160a01b900460ff166005811115610d1257610d1261105b565b14610d6e5760405162461bcd60e51b815260206004820152602660248201527f50726f706f73616c7320726567697374726174696f6e206973206e6f7420636f6044820152656d706c65746560d01b60648201526084016102c2565b6000805460ff60a01b1916600360a01b17908190556040516000805160206112f68339815191529161092b91600291600160a01b900460ff16906112da565b610db5610e26565b6001600160a01b038116610e1a5760405162461bcd60e51b815260206004820152602660248201527f4f776e61626c653a206e6577206f776e657220697320746865207a65726f206160448201526564647265737360d01b60648201526084016102c2565b610e2381610e80565b50565b6000546001600160a01b031633146109475760405162461bcd60e51b815260206004820181905260248201527f4f776e61626c653a2063616c6c6572206973206e6f7420746865206f776e657260448201526064016102c2565b600080546001600160a01b038381166001600160a01b0319831681178455604051919092169283917f8be0079c531659141344cd1fd0a4f28419497f9722a3daafe3b4186f6b6457e09190a35050565b600060208284031215610ee257600080fd5b5035919050565b6000815180845260005b81811015610f0f57602081850181015186830182015201610ef3565b506000602082860101526020601f19601f83011685010191505092915050565b604081526000610f426040830185610ee9565b90508260208301529392505050565b634e487b7160e01b600052604160045260246000fd5b600060208284031215610f7957600080fd5b813567ffffffffffffffff80821115610f9157600080fd5b818401915084601f830112610fa557600080fd5b813581811115610fb757610fb7610f51565b604051601f8201601f19908116603f01168101908382118183101715610fdf57610fdf610f51565b81604052828152876020848701011115610ff857600080fd5b826020860160208301376000928101602001929092525095945050505050565b60006020828403121561102a57600080fd5b81356001600160a01b038116811461104157600080fd5b9392505050565b6020815260006110416020830184610ee9565b634e487b7160e01b600052602160045260246000fd5b6006811061108f57634e487b7160e01b600052602160045260246000fd5b9052565b602081016110a18284611071565b92915050565b6020808252602e908201527f4f6e6c79207265676973746572656420766f746572732063616e20706572666f60408201526d3936903a3434b99030b1ba34b7b760911b606082015260800190565b634e487b7160e01b600052603260045260246000fd5b634e487b7160e01b600052601160045260246000fd5b6000600182016111335761113361110b565b5060010190565b600181811c9082168061114e57607f821691505b60208210810361116e57634e487b7160e01b600052602260045260246000fd5b50919050565b60208082526024908201527f50726f706f73616c7320726567697374726174696f6e206973206e6f742061636040820152637469766560e01b606082015260800190565b601f82111561120257600081815260208120601f850160051c810160208610156111df5750805b601f850160051c820191505b818110156111fe578281556001016111eb565b5050505b505050565b815167ffffffffffffffff81111561122157611221610f51565b6112358161122f845461113a565b846111b8565b602080601f83116001811461126a57600084156112525750858301515b600019600386901b1c1916600185901b1785556111fe565b600085815260208120601f198616915b828110156112995788860151825594840194600190910190840161127a565b50858210156112b75787850151600019600388901b60f8161c191681555b5050505050600190811b01905550565b818103818111156110a1576110a161110b565b604081016112e88285611071565b611041602083018461107156fe0a97a4ee45751e2abf3e4fc8946939630b11b371ea8ae39ccdc3056e98f5cc3fa2646970667358221220e56396ab52b40a8300b4324d3f2f128189f3790176006b46a54b4f37f4265a9064736f6c63430008130033",
  "immutableReferences": {},
  "source": "// SPDX-License-Identifier: MIT\npragma solidity ^0.8.19;\n\nimport \"@openzeppelin/contracts/access/Ownable.sol\";\n\ncontract Voting is Ownable {\n\n    struct Voter {\n        bool isRegistered;\n        bool hasVoted;\n        uint votedProposalId;\n    }\n\n    struct Proposal {\n        string description;\n        uint voteCount;\n    }\n\n    enum WorkflowStatus {\n        RegisteringVoters,\n        ProposalsRegistrationStarted,\n        ProposalsRegistrationEnded,\n        VotingSessionStarted,\n        VotingSessionEnded,\n        VotesTallied\n    }\n\n    WorkflowStatus public workflowStatus;\n    mapping(address => Voter) public voters;\n    Proposal[] public proposals;\n    uint public winningProposalId; // Ajout de la dclaration de la variable manquante\n\n    event VoterRegistered(address voterAddress);\n    event WorkflowStatusChange(WorkflowStatus previousStatus, WorkflowStatus newStatus);\n    event ProposalRegistered(uint proposalId);\n    event Voted(address voter, uint proposalId);\n\n    modifier onlyRegisteredVoter() {\n        require(voters[msg.sender].isRegistered, \"Only registered voters can perform this action\");\n        _;\n    }\n\n    function registerVoter(address _voterAddress) public onlyOwner {\n        require(workflowStatus == WorkflowStatus.RegisteringVoters, \"Voters registration has ended\");\n        require(!voters[_voterAddress].isRegistered, \"Voter already registered\");\n        voters[_voterAddress] = Voter(true, false, 0);\n        emit VoterRegistered(_voterAddress);\n    }\n\n    function startProposalsRegistration() public onlyOwner {\n        require(workflowStatus == WorkflowStatus.RegisteringVoters, \"Voters registration is not complete\");\n        workflowStatus = WorkflowStatus.ProposalsRegistrationStarted;\n        emit WorkflowStatusChange(WorkflowStatus.RegisteringVoters, workflowStatus);\n    }\n\n    function registerProposal(string memory _description) public onlyRegisteredVoter {\n        require(workflowStatus == WorkflowStatus.ProposalsRegistrationStarted, \"Proposals registration is not active\");\n        proposals.push(Proposal(_description, 0));\n        uint proposalId = proposals.length - 1;\n        emit ProposalRegistered(proposalId);\n    }\n\n    function endProposalsRegistration() public onlyOwner {\n        require(workflowStatus == WorkflowStatus.ProposalsRegistrationStarted, \"Proposals registration is not active\");\n        workflowStatus = WorkflowStatus.ProposalsRegistrationEnded;\n        emit WorkflowStatusChange(WorkflowStatus.ProposalsRegistrationStarted, workflowStatus);\n    }\n\n    function startVotingSession() public onlyOwner {\n        require(workflowStatus == WorkflowStatus.ProposalsRegistrationEnded, \"Proposals registration is not complete\");\n        workflowStatus = WorkflowStatus.VotingSessionStarted;\n        emit WorkflowStatusChange(WorkflowStatus.ProposalsRegistrationEnded, workflowStatus);\n    }\n\n    function vote(uint _proposalId) public onlyRegisteredVoter {\n        require(workflowStatus == WorkflowStatus.VotingSessionStarted, \"Voting session is not active\");\n        require(!voters[msg.sender].hasVoted, \"Voter has already voted\");\n\n        voters[msg.sender].hasVoted = true;\n        voters[msg.sender].votedProposalId = _proposalId;\n\n        proposals[_proposalId].voteCount++;\n\n        emit Voted(msg.sender, _proposalId);\n    }\n\n    function endVotingSession() public onlyOwner {\n        require(workflowStatus == WorkflowStatus.VotingSessionStarted, \"Voting session is not active\");\n        workflowStatus = WorkflowStatus.VotingSessionEnded;\n        emit WorkflowStatusChange(WorkflowStatus.VotingSessionStarted, workflowStatus);\n    }\n\n    function tallyVotes() public onlyOwner {\n        require(workflowStatus == WorkflowStatus.VotingSessionEnded, \"Voting session has not ended\");\n        workflowStatus = WorkflowStatus.VotesTallied;\n\n        uint winningVoteCount = 0;\n        uint winningProposalId = 0;\n\n        for (uint i = 0; i < proposals.length; i++) {\n            if (proposals[i].voteCount > winningVoteCount) {\n                winningVoteCount = proposals[i].voteCount;\n                winningProposalId = i;\n            }\n        }\n\n        emit WorkflowStatusChange(WorkflowStatus.VotingSessionEnded, workflowStatus);\n}\n\nfunction getWinner() public view returns (string memory) {\n    require(workflowStatus == WorkflowStatus.VotesTallied, \"Votes have not been tallied\");\n    return proposals[winningProposalId].description;\n}\n\nfunction getProposal(uint _proposalId) public view returns (string memory description, uint voteCount) {\n    require(_proposalId < proposals.length, \"Invalid proposal ID\");\n    Proposal storage proposal = proposals[_proposalId];\n    return (proposal.description, proposal.voteCount);\n}\n\nfunction getProposalsCount() public view returns (uint) {\n    return proposals.length;\n}\n\n}\n",
  "sourcePath": "/Users/lucasdelicourt/Documents/voting-dapp/contracts/Voting.sol",
  "compiler": {
    "name": "solc",
    "version": "0.8.19+commit.7dd6d404.Emscripten.clang"
  },
  "schemaVersion": "3.4.13",
  "updatedAt": "2023-05-05T08:54:30.403Z",
  "devdoc": {
    "kind": "dev",
    "methods": {
      "owner()": {
        "details": "Returns the address of the current owner."
      },
      "renounceOwnership()": {
        "details": "Leaves the contract without owner. It will not be possible to call `onlyOwner` functions anymore. Can only be called by the current owner. NOTE: Renouncing ownership will leave the contract without an owner, thereby removing any functionality that is only available to the owner."
      },
      "transferOwnership(address)": {
        "details": "Transfers ownership of the contract to a new account (`newOwner`). Can only be called by the current owner."
      }
    },
    "version": 1
  },
  "userdoc": {
    "kind": "user",
    "methods": {},
    "version": 1
  }
}